:06117600900001020AEBEB
:10080000EFD3940540037F0122120AD2FED3940352
:1008100040037F0222EF7035EE7008121176F45219
:10082000935294120AD2B401081211764293F452F0
:1008300094120AD2FEB4020712117642934294EE49
:10084000B4030A121176FEF45293EE4294EF64015F
:100850007037120AD2FE7008121176F45291529239
:10086000EEB401081211764291F45292120AD2B4F7
:10087000020712117642914292120AD2B4030A126E
:100880001176FEF45291EE4292EF64027037120A32
:10089000D2FE7008121176F452955296EEB4010809
:1008A0001211764295F45296120AD2B4020712112E
:1008B0007642954296120AD2B4030A121176FEF4D9
:1008C0005295EE4296EF64037037120AD2FE70081A
:1008D000121176F452B152B2EEB4010812117642FE
:1008E000B1F452B2120AD2B4020712117642B142E6
:1008F000B2120AD2B4030A121176FEF452B1EE42D9
:10090000B2EF64047037120AD2FE7008121176F446
:1009100052B352B4EEB4010812117642B3F452B499
:10092000120AD2B4020712117642B342B4120AD2AA
:10093000B4030A121176FEF452B3EE42B4EF64052A
:100940007037120AD2FF7008121176F452C952CAD7
:10095000EFB4010812117642C9F452CA120AD2B495
:10096000020712117642C942CA120AD2B4030A120D
:0C0970001176FFF452C9EF42CA7F00224A
:100F0300EF14601614601914601C14601F1460221F
:100F130024057022E5805DFE801CE5905DFE801651
:100F2300E5A05DFE8010E5B05DFE800AE5C05DFED4
:100F33008004E5C85DFEEED3940040037F01227F69
:010F430000AD
:010F4400228A
:10104E00EF146014146015146016146017146018F1
:10105E0024057017ED428022ED429022ED42A0222F
:0C106E00ED42B022ED42C022ED42C8224B
:10101C00EF14601514601714601914601B14601D14
:10102C002405701DEDF4528022EDF4529022EDF463
:10103C0052A022EDF452B022EDF452C022EDF45243
:02104C00C822B8
:1010F600E4F548F549754A01754B01F54C754DF80F
:10110600754ECD754F01FB7A0079487F0202097C46
:1011160012107A120E5A1210F6120F7FD2AF7D04F9
:0D1126007F0112104E120CDE120BDD80F85E
:040EB70002500000E5
:100FE9004EF589900003020AEB900002120B43FFB1
:100FF900C3E5519FFFE55095F0FE22900005020BD5
:1010090043900002020AEB900004020AEB900007E9
:03101900020AEBDD
:03000B0002118659
:011186003236
:10097C00AD07EDD3940240037F0122ED706EC28C63
:10098C0012100AB40104D2A98002C2A9900001126B
:10099C000AEBB40104D2B98002C2B9120AD2FED356
:1009AC00940340037F0222E58954FC120FE9FFB443
:1009BC000103538E7FEF7003438E80EFB402054327
:1009CC00890480035389FB121010B40105438F0175
:1009DC008003538FFE121004E5F0F58C121004F511
:1009EC008A121016B40102D28C7F0022ED640170C1
:1009FC006EC28E12100AB40104D2AB8002C2AB904C
:100A0C000001120AEBB40104D2BB8002C2BB120A71
:100A1C00D2FEC3940340037F0222E58954CF120F08
:100A2C00E9FFB40103538EBFEF7003438E40EFB464
:100A3C00020543894080035389BF121010B401058D
:100A4C00438F028003538FFD121004E5F0F58D12D5
:100A5C001004F58B121016B40102D28E7F0022ED19
:100A6C006402705F538EEF12100AB4010543AF0499
:100A7C00800353AFFB120FECFED3940240037F02B2
:100A8C0022EEB40103538EFB120FEC7003438E0461
:100A9C00120FECB40205438E088003538EF712102C
:100AAC0010B40105438F048003538FFB121004FD17
:100ABC00ACF0ECF5D68DD7121016B40103438E10A2
:060ACC007F00227F0222E0
:10113300120FF2120B18FDD3EF9DEE95F040047FD2
:061143000180027F002282
:0B116400900002E5508551F0020B9A4C
:06117C00EC8DF0020B7B7C
:04118200120FF22234
:040FB5008F828E8316
:100FB900AE50AF51E48F4B8E4AF549F548AE50AF6C
:100FC90051C3EF954BFFEE954AFEE49549FDE49533
:0F0FD90048FCAB82AA83E4F9F8D3120BC750DEB1
:010FE80022E6
:03001B0002118748
:011187003235
:0300630002115730
:0D115700C0E00551E55170020550D0E032B6
:0C0EBB000146FF0145FF01470001400413
:07116F007B007A00794122A8
:100E5A007F037E00120F45BF0114754606754506CD
:100E6A007F067E00120F45BF01028024803B7F016E
:100E7A007E00120F45BF01087546017545018010B5
:100E8A007F047E00120F45BF010B754605754504A8
:100E9A007E007F01227546FF7545FF7D047F0112A2
:0D0EAA00101C7D107F0112104EE4FEFF228F
:100BDD00E540603D146052146076147003020C857C
:100BED00146003020CC1120E5AEF64014E60030231
:100BFD000CC17D107F0112101C7D047F0112104E5F
:100C0D007D407F0312101CE4F5407FF47E01020F3E
:100C1D00B5AF457E00121149EF6003020CC17D4056
:100C2D007F0312104E75400122120CCEBF011A1215
:100C3D00116F7D407C9C12117C12116F1211647D1D
:100C4D00407F0312101C754002120CD67066805343
:100C5D00AF467E001210D1EF6006120CC202101CBE
:100C6D00120CCEEF704E7D407F0312104E120CD63B
:100C7D007002802F75400322AF467E001210D1EF17
:100C8D006006120CC212101C12116F121133EF708C
:100C9D0008FFFE121149EF701BAF467E001211497D
:100CAD00EF70117D107F0112104E7D047F01121027
:040CBD001C7540045E
:100CC100227D107F0112104E7D047F0122AF467EEE
:0D0CD1000012114922E4FFFE121149EF222A
:100EC700203808010801000000000005100100009B
:100ED70000000005200100000000000102010000E1
:100EE7000000000101010000000000038000000075
:0B0EF7000000000120000000000000CF
:1010A600AF49EF75F008A4240BF822EF75F008A4F9
:1010B600240CF9E4FAFB2275F008A42408F8E6FFEC
:0B10C60022C3EF9407EE6480948022A8
:100F7F00E4F548F549AF49EF75F008A42409F8E600
:100F8F00F54BE4F54AEF1210BD7B007A00794A1257
:100F9F0008000549E54970020548C39407E5486410
:050FAF0080948040D099
:010FB400221A
:040F45008E4B8F4CF4
:100F4900AE4CEE1210BDEE75F008A42409F8E6FDCA
:100F5900C3E54C9407E54B6480948040037F0022ED
:100F6900120F03E54C75F008A4240AF8E6B5070347
:050F79007F01227F0052
:010F7E002250
:0E1149001210C740037F04221210A8E6FF22F6
:1010D1001210C740037F00221210A8E6B4011312B8
:1010E10010B1121182D3EF9410EE942740047F01C6
:0410F10080027F00FA
:0110F50022D8
:100CDE00E4F54AF548F549E5491210A9E6701812EF
:100CEE000DC6EF64017010120DA7121164E54912C2
:100CFE0010A97603020D901210A6E664037032124C
:100D0E0010B1121133EF6029120DC6EF6401701A83
:100D1E001210A676011210B17D607CEA12117CE5EC
:100D2E00491210B2121164020D90E54975F0088057
:100D3E004BE5491210A9E664017019AF49AE48128D
:100D4E000F45EF700F120DA7121164E5491210A98D
:100D5E007602802E1210A6E6640270261210B112D0
:100D6E001133EF601DAF49AE48120F45E54975F0DE
:100D7E0008BF0108A4240BF876018006A4240BF802
:100D8E00E4F60549E54970020548C39407E5486451
:080D9E008094805003020CE573
:100DA60022E54975F008A4240CF9E4FAFB7D0AFC57
:100DB60012117CE54975F008A4240CF9E4FAFB222B
:080DC600AF49AE48120F4522AF
:10107A0075490412109775491012109775494075F1
:0D108A0048027B007A0079487F03020800CD
:0F1097007548037B007A0079487F011208002218
:03000000020DCE20
:0C0DCE00787FE4F6D8FD758151020E1507
:100AD200BB010689828A83E0225002E722BBFE0222
:090AE200E32289828A83E4932255
:100AEB00BB010CE58229F582E5833AF583E02250C0
:100AFB0006E92582F8E622BBFE06E92582F8E2220A
:0D0B0B00E58229F582E5833AF583E4932223
:100B1800BB010A89828A83E0F5F0A3E022500687A8
:100B2800F009E71922BBFE07E3F5F009E31922896A
:0B0B3800828A83E493F5F0740193229D
:100B4300BB0110E58229F582E5833AF583E0F5F0F0
:100B5300A3E0225009E92582F886F008E622BBFECD
:100B63000AE92582F8E2F5F008E222E5832AF58313
:080B7300E993F5F0A3E99322D8
:100B7B00BB010A89828A83F0E5F0A3F0225006F7C5
:0F0B8B0009A7F01922BBFE06F3E5F009F31922C2
:100B9A00F8BB0111E58229F582E5833AF583E8F08D
:100BAA00E5F0A3F0225009E92582C8F608A6F0224A
:0D0BBA00BBFE09E92582C8F2E5F008F22231
:100BC700EB9FF5F0EA9E42F0E99D42F0EC6480C8A5
:060BD70064809845F02245
:100DDA00021116E493A3F8E493A34003F68001F208
:100DEA0008DFF48029E493A3F85407240CC8C3331A
:100DFA00C4540F4420C8834004F456800146F6DFE9
:100E0A00E4800B0102040810204080900EB7E47EB3
:100E1A00019360BCA3FF543F30E509541FFEE493DD
:100E2A00A360010ECF54C025E060A840B8E493A3A4
:100E3A00FAE493A3F8E493A3C8C582C8CAC583CACF
:100E4A00F0A3C8C582C8CAC583CADFE9DEE780BE87
:010F020000EE
:00000001FF
