:06114700900001020AEB1A
:10080000EFD3940540037F0122120AD2FED3940352
:1008100040037F0222EF7035EE7008121147F45248
:10082000935294120AD2B401081211474293F4521F
:1008300094120AD2FEB4020712114742934294EE78
:10084000B4030A121147FEF45293EE4294EF64018E
:100850007037120AD2FE7008121147F45291529268
:10086000EEB401081211474291F45292120AD2B426
:10087000020712114742914292120AD2B4030A129D
:100880001147FEF45291EE4292EF64027037120A61
:10089000D2FE7008121147F452955296EEB4010838
:1008A0001211474295F45296120AD2B4020712115D
:1008B0004742954296120AD2B4030A121147FEF437
:1008C0005295EE4296EF64037037120AD2FE70081A
:1008D000121147F452B152B2EEB40108121147425C
:1008E000B1F452B2120AD2B4020712114742B14215
:1008F000B2120AD2B4030A121147FEF452B1EE4208
:10090000B2EF64047037120AD2FE7008121147F475
:1009100052B352B4EEB4010812114742B3F452B4C8
:10092000120AD2B4020712114742B342B4120AD2D9
:10093000B4030A121147FEF452B3EE42B4EF640559
:100940007037120AD2FF7008121147F452C952CA06
:10095000EFB4010812114742C9F452CA120AD2B4C4
:10096000020712114742C942CA120AD2B4030A123C
:0C0970001147FFF452C9EF42CA7F002279
:100ED400EF14601614601914601C14601F1460224F
:100EE40024057022E5805DFE801CE5905DFE801681
:100EF400E5A05DFE8010E5B05DFE800AE5C05DFE04
:100F04008004E5C85DFEEED3940040037F01227F98
:010F140000DC
:010F150022B9
:10101F00EF14601414601514601614601714601820
:10102F0024057017ED428022ED429022ED42A0225E
:0C103F00ED42B022ED42C022ED42C8227A
:100FED00EF14601514601714601914601B14601D44
:100FFD002405701DEDF4528022EDF4529022EDF493
:10100D0052A022EDF452B022EDF452C022EDF45272
:02101D00C822E7
:1010C700E4F548F549754A01754B01F54C754DF83E
:1010D700754ECD754F01FB7A0079487F0202097C76
:1010E70012104B120E2B1210C7120F50D2AF7D04E5
:0D10F7007F0112101F120BDD120CCD80F8CE
:040E88000250000014
:100FBA004EF589900003020AEB900002120B43FFE0
:100FCA00C3E5519FFFE55095F0FE22900005020B04
:100FDA0043900002020AEB900004020AEB90000719
:030FEA00020AEB0D
:03000B0002115788
:011157003265
:10097C00AD07EDD3940240037F0122ED706EC28C63
:10098C00120FDBB40104D2A98002C2A9900001129B
:10099C000AEBB40104D2B98002C2B9120AD2FED356
:1009AC00940340037F0222E58954FC120FBAFFB472
:1009BC000103538E7FEF7003438E80EFB402054327
:1009CC00890480035389FB120FE1B40105438F01A5
:1009DC008003538FFE120FD5E5F0F58C120FD5F571
:1009EC008A120FE7B40102D28C7F0022ED640170F1
:1009FC006EC28E120FDBB40104D2AB8002C2AB907C
:100A0C000001120AEBB40104D2BB8002C2BB120A71
:100A1C00D2FEC3940340037F0222E58954CF120F08
:100A2C00BAFFB40103538EBFEF7003438E40EFB493
:100A3C00020543894080035389BF120FE1B40105BD
:100A4C00438F028003538FFD120FD5E5F0F58D1205
:100A5C000FD5F58B120FE7B40102D28E7F0022ED79
:100A6C006402705F538EEF120FDBB4010543AF04C9
:100A7C00800353AFFB120FBDFED3940240037F02E1
:100A8C0022EEB40103538EFB120FBD7003438E0490
:100A9C00120FBDB40205438E088003538EF7120F5C
:100AAC00E1B40105438F048003538FFB120FD5FD76
:100ABC00ACF0ECF5D68DD7120FE7B40103438E10D2
:060ACC007F00227F0222E0
:10110400120FC3120B18FDD3EF9DEE95F040047F30
:061114000180027F0022B1
:0B113500900002E5508551F0020B9A7B
:06114D00EC8DF0020B7BAB
:04115300120FC32292
:040F86008F828E8345
:100F8A00AE50AF51E48F4B8E4AF549F548AE50AF9B
:100F9A0051C3EF954BFFEE954AFEE49549FDE49562
:0F0FAA0048FCAB82AA83E4F9F8D3120BC750DEE0
:010FB9002215
:03001B0002115877
:011158003264
:030063000211285F
:0D112800C0E00551E55170020550D0E032E5
:0C0E8C000146FF0145FF01470001400442
:071140007B007A00794122D7
:100E2B007F037E00120F16BF01147546067545062B
:100E3B007F067E00120F16BF01028024803B7F01CC
:100E4B007E00120F16BF0108754601754501801013
:100E5B007F047E00120F16BF010B75460575450406
:100E6B007E007F01227546FF7545FF7D047F0112D1
:0D0E7B000FED7D107F0112101FE4FEFF221D
:100CCD00E540603D14604F146073147003020D62B3
:100CDD00146003020D8E120E2BEF64014E600302A1
:100CED000D8E7D107F01120FED7D047F0112101FFF
:100CFD007D407F03120FEDE4F5407FF47E01020F7E
:100D0D0086AF457E0012111AEF70767D407F03127B
:100D1D00101F75400122120D8FBF011A1211407D57
:100D2D00407C9C12114D1211401211357D407F03F4
:100D3D00120FED754002120D9770468033120D8F14
:100D4D00EF703E7D407F0312101F120D97700280D1
:100D5D001F75400322121140121104EF7008FFFE9F
:100D6D0012111AEF701BAF467E0012111AEF70119F
:100D7D007D107F0112101F7D047F01120FED754054
:010D8D000461
:100D8E0022AF467E0012111A22E4FFFE12111AEF54
:010D9E002232
:100E980020380801080100000000000510010000CA
:100EA8000000000520010000000000010201000010
:100EB80000000001010100000000000380000000A4
:0B0EC8000000000120000000000000FE
:10107700AF49EF75F008A4240BF822EF75F008A428
:10108700240CF9E4FAFB2275F008A42408F8E6FF1B
:0B10970022C3EF9407EE6480948022D7
:100F5000E4F548F549AF49EF75F008A42409F8E62F
:100F6000F54BE4F54AEF12108E7B007A00794A12B5
:100F700008000549E54970020548C39407E548643F
:050F800080948040D0C8
:010F85002249
:040F16008E4B8F4C23
:100F1A00AE4CEE12108EEE75F008A42409F8E6FD28
:100F2A00C3E54C9407E54B6480948040037F00221C
:100F3A00120ED4E54C75F008A4240AF8E6B50703A6
:050F4A007F01227F0081
:010F4F00227F
:0E111A0012109840037F0422121079E6FF2283
:1010A20012109840037F0022121079E6B401131245
:1010B2001082121153D3EF9410EE942740047F0153
:0410C20080027F0029
:0110C6002207
:100BDD00E4F54AF548F549E54912107AE670181220
:100BED000CC5EF64017010120CA6121135E54912F7
:100BFD00107A7603020C8F121077E66403703212AE
:100C0D001082121104EF6029120CC5EF6401701AE5
:100C1D0012107776011210827D607CEA12114DE57B
:100C2D0049121083121135020C8FE54975F00880B9
:100C3D004BE54912107AE664017019AF49AE4812BE
:100C4D000F16EF700F120CA6121135E54912107A1E
:100C5D007602802E121077E6640270261210821230
:100C6D001104EF601DAF49AE48120F16E54975F03E
:100C7D0008BF0108A4240BF876018006A4240BF804
:100C8D00E4F60549E54970020548C39407E5486453
:080C9D008094805003020BE477
:100CA50022E54975F008A4240CF9E4FAFB7D0AFC59
:100CB50012114DE54975F008A4240CF9E4FAFB225C
:080CC500AF49AE48120F1622E0
:10104B00754904121068754910121068754940757E
:0D105B0048027B007A0079487F03020800FC
:0F1068007548037B007A0079487F011208002247
:03000000020D9F4F
:0C0D9F00787FE4F6D8FD758151020DE666
:100AD200BB010689828A83E0225002E722BBFE0222
:090AE200E32289828A83E4932255
:100AEB00BB010CE58229F582E5833AF583E02250C0
:100AFB0006E92582F8E622BBFE06E92582F8E2220A
:0D0B0B00E58229F582E5833AF583E4932223
:100B1800BB010A89828A83E0F5F0A3E022500687A8
:100B2800F009E71922BBFE07E3F5F009E31922896A
:0B0B3800828A83E493F5F0740193229D
:100B4300BB0110E58229F582E5833AF583E0F5F0F0
:100B5300A3E0225009E92582F886F008E622BBFECD
:100B63000AE92582F8E2F5F008E222E5832AF58313
:080B7300E993F5F0A3E99322D8
:100B7B00BB010A89828A83F0E5F0A3F0225006F7C5
:0F0B8B0009A7F01922BBFE06F3E5F009F31922C2
:100B9A00F8BB0111E58229F582E5833AF583E8F08D
:100BAA00E5F0A3F0225009E92582C8F608A6F0224A
:0D0BBA00BBFE09E92582C8F2E5F008F22231
:100BC700EB9FF5F0EA9E42F0E99D42F0EC6480C8A5
:060BD70064809845F02245
:100DAB000210E7E493A3F8E493A34003F68001F267
:100DBB0008DFF48029E493A3F85407240CC8C33349
:100DCB00C4540F4420C8834004F456800146F6DF18
:100DDB00E4800B0102040810204080900E88E47E12
:100DEB00019360BCA3FF543F30E509541FFEE4930D
:100DFB00A360010ECF54C025E060A840B8E493A3D4
:100E0B00FAE493A3F8E493A3C8C582C8CAC583CAFE
:100E1B00F0A3C8C582C8CAC583CADFE9DEE780BEB6
:010ED300001E
:00000001FF
