:06114900900001020AEB18
:10080000EFD3940540037F0122120AD2FED3940352
:1008100040037F0222EF7035EE7008121149F45246
:10082000935294120AD2B401081211494293F4521D
:1008300094120AD2FEB4020712114942934294EE76
:10084000B4030A121149FEF45293EE4294EF64018C
:100850007037120AD2FE7008121149F45291529266
:10086000EEB401081211494291F45292120AD2B424
:10087000020712114942914292120AD2B4030A129B
:100880001149FEF45291EE4292EF64027037120A5F
:10089000D2FE7008121149F452955296EEB4010836
:1008A0001211494295F45296120AD2B4020712115B
:1008B0004942954296120AD2B4030A121149FEF433
:1008C0005295EE4296EF64037037120AD2FE70081A
:1008D000121149F452B152B2EEB401081211494258
:1008E000B1F452B2120AD2B4020712114942B14213
:1008F000B2120AD2B4030A121149FEF452B1EE4206
:10090000B2EF64047037120AD2FE7008121149F473
:1009100052B352B4EEB4010812114942B3F452B4C6
:10092000120AD2B4020712114942B342B4120AD2D7
:10093000B4030A121149FEF452B3EE42B4EF640557
:100940007037120AD2FF7008121149F452C952CA04
:10095000EFB4010812114942C9F452CA120AD2B4C2
:10096000020712114942C942CA120AD2B4030A123A
:0C0970001149FFF452C9EF42CA7F002277
:100ED600EF14601614601914601C14601F1460224D
:100EE60024057022E5805DFE801CE5905DFE80167F
:100EF600E5A05DFE8010E5B05DFE800AE5C05DFE02
:100F06008004E5C85DFEEED3940040037F01227F96
:010F160000DA
:010F170022B7
:10102100EF1460141460151460161460171460181E
:1010310024057017ED428022ED429022ED42A0225C
:0C104100ED42B022ED42C022ED42C82278
:100FEF00EF14601514601714601914601B14601D42
:100FFF002405701DEDF4528022EDF4529022EDF491
:10100F0052A022EDF452B022EDF452C022EDF45270
:02101F00C822E5
:1010C900E4F548F549754A01754B01F54C754DF83C
:1010D900754ECD754F01FB7A0079487F0202097C74
:1010E90012104D120E2D1210C9120F52D2AF7D04DB
:0D10F9007F01121021120BDD120CCD80F8CA
:040E8A000250000012
:100FBC004EF589900003020AEB900002120B43FFDE
:100FCC00C3E5519FFFE55095F0FE22900005020B02
:100FDC0043900002020AEB900004020AEB90000717
:030FEC00020AEB0B
:03000B0002115986
:011159003263
:10097C00AD07EDD3940240037F0122ED706EC28C63
:10098C00120FDDB40104D2A98002C2A99000011299
:10099C000AEBB40104D2B98002C2B9120AD2FED356
:1009AC00940340037F0222E58954FC120FBCFFB470
:1009BC000103538E7FEF7003438E80EFB402054327
:1009CC00890480035389FB120FE3B40105438F01A3
:1009DC008003538FFE120FD7E5F0F58C120FD7F56D
:1009EC008A120FE9B40102D28C7F0022ED640170EF
:1009FC006EC28E120FDDB40104D2AB8002C2AB907A
:100A0C000001120AEBB40104D2BB8002C2BB120A71
:100A1C00D2FEC3940340037F0222E58954CF120F08
:100A2C00BCFFB40103538EBFEF7003438E40EFB491
:100A3C00020543894080035389BF120FE3B40105BB
:100A4C00438F028003538FFD120FD7E5F0F58D1203
:100A5C000FD7F58B120FE9B40102D28E7F0022ED75
:100A6C006402705F538EEF120FDDB4010543AF04C7
:100A7C00800353AFFB120FBFFED3940240037F02DF
:100A8C0022EEB40103538EFB120FBF7003438E048E
:100A9C00120FBFB40205438E088003538EF7120F5A
:100AAC00E3B40105438F048003538FFB120FD7FD72
:100ABC00ACF0ECF5D68DD7120FE9B40103438E10D0
:060ACC007F00227F0222E0
:10110600120FC5120B18FDD3EF9DEE95F040047F2C
:061116000180027F0022AF
:0B113700900002E5508551F0020B9A79
:06114F00EC8DF0020B7BA9
:04115500120FC5228E
:040F88008F828E8343
:100F8C00AE50AF51E48F4B8E4AF549F548AE50AF99
:100F9C0051C3EF954BFFEE954AFEE49549FDE49560
:0F0FAC0048FCAB82AA83E4F9F8D3120BC750DEDE
:010FBB002213
:03001B0002115A75
:01115A003262
:0300630002112A5D
:0D112A00C0E00551E55170020550D0E032E3
:0C0E8E000146FF0145FF01470001400440
:071142007B007A00794122D5
:100E2D007F037E00120F18BF011475460675450627
:100E3D007F067E00120F18BF01028024803B7F01C8
:100E4D007E00120F18BF010875460175450180100F
:100E5D007F047E00120F18BF010B75460575450402
:100E6D007E007F01227546FF7545FF7D047F0112CF
:0D0E7D000FEF7D107F01121021E4FEFF2217
:100CCD00E540603814604A24FE6070146003020D24
:100CDD0082120E2DEF64014E6003020D827D107F96
:100CED0001120FEF7D047F011210217D407F031251
:100CFD000FEFE4F5407FF47E01020F88AF457E00D3
:100D0D0012111CEF706F7D407F0312102175400191
:100D1D0022120D99BF01131211427D407C9C1211BC
:100D2D004F121142121137754003E4FFFE12111CD0
:100D3D00EF7042120D83EF703C8037120D99EF70FA
:100D4D00097D407F031210218011AF467E001211E4
:100D5D001CBF01077D407F03120FEF1211421211CC
:100D6D0006EF7008FFFE12111CEF7009120D83EFD4
:050D7D00700375400445
:100D8200227D107F011210217D047F01120FEFAF2F
:0F0D9200467E0012111C22AF467E0012111C2259
:100E9A0020380801080100000000000510010000C8
:100EAA00000000052001000000000001020100000E
:100EBA0000000001010100000000000380000000A2
:0B0ECA000000000120000000000000FC
:10107900AF49EF75F008A4240BF822EF75F008A426
:10108900240CF9E4FAFB2275F008A42408F8E6FF19
:0B10990022C3EF9407EE6480948022D5
:100F5200E4F548F549AF49EF75F008A42409F8E62D
:100F6200F54BE4F54AEF1210907B007A00794A12B1
:100F720008000549E54970020548C39407E548643D
:050F820080948040D0C6
:010F87002247
:040F18008E4B8F4C21
:100F1C00AE4CEE121090EE75F008A42409F8E6FD24
:100F2C00C3E54C9407E54B6480948040037F00221A
:100F3C00120ED6E54C75F008A4240AF8E6B50703A2
:050F4C007F01227F007F
:010F5100227D
:0E111C0012109A40037F042212107BE6FF227D
:1010A40012109A40037F002212107BE6B40113123F
:1010B4001084121155D3EF9410EE942740047F014D
:0410C40080027F0027
:0110C8002205
:100BDD00E4F54AF548F549E54912107CE67018121E
:100BED000CC5EF64017010120CA6121137E54912F5
:100BFD00107C7603020C8F121079E66403703212AA
:100C0D001084121106EF6029120CC5EF6401701AE1
:100C1D0012107976011210847D607CEA12114FE575
:100C2D0049121085121137020C8FE54975F00880B5
:100C3D004BE54912107CE664017019AF49AE4812BC
:100C4D000F18EF700F120CA6121137E54912107C18
:100C5D007602802E121079E664027026121084122C
:100C6D001106EF601DAF49AE48120F18E54975F03A
:100C7D0008BF0108A4240BF876018006A4240BF804
:100C8D00E4F60549E54970020548C39407E5486453
:080C9D008094805003020BE477
:100CA50022E54975F008A4240CF9E4FAFB7D0AFC59
:100CB50012114FE54975F008A4240CF9E4FAFB225A
:080CC500AF49AE48120F1822DE
:10104D0075490412106A75491012106A7549407578
:0D105D0048027B007A0079487F03020800FA
:0F106A007548037B007A0079487F011208002245
:03000000020DA14D
:0C0DA100787FE4F6D8FD758151020DE862
:100AD200BB010689828A83E0225002E722BBFE0222
:090AE200E32289828A83E4932255
:100AEB00BB010CE58229F582E5833AF583E02250C0
:100AFB0006E92582F8E622BBFE06E92582F8E2220A
:0D0B0B00E58229F582E5833AF583E4932223
:100B1800BB010A89828A83E0F5F0A3E022500687A8
:100B2800F009E71922BBFE07E3F5F009E31922896A
:0B0B3800828A83E493F5F0740193229D
:100B4300BB0110E58229F582E5833AF583E0F5F0F0
:100B5300A3E0225009E92582F886F008E622BBFECD
:100B63000AE92582F8E2F5F008E222E5832AF58313
:080B7300E993F5F0A3E99322D8
:100B7B00BB010A89828A83F0E5F0A3F0225006F7C5
:0F0B8B0009A7F01922BBFE06F3E5F009F31922C2
:100B9A00F8BB0111E58229F582E5833AF583E8F08D
:100BAA00E5F0A3F0225009E92582C8F608A6F0224A
:0D0BBA00BBFE09E92582C8F2E5F008F22231
:100BC700EB9FF5F0EA9E42F0E99D42F0EC6480C8A5
:060BD70064809845F02245
:100DAD000210E9E493A3F8E493A34003F68001F263
:100DBD0008DFF48029E493A3F85407240CC8C33347
:100DCD00C4540F4420C8834004F456800146F6DF16
:100DDD00E4800B0102040810204080900E8AE47E0E
:100DED00019360BCA3FF543F30E509541FFEE4930B
:100DFD00A360010ECF54C025E060A840B8E493A3D2
:100E0D00FAE493A3F8E493A3C8C582C8CAC583CAFC
:100E1D00F0A3C8C582C8CAC583CADFE9DEE780BEB4
:010ED500001C
:00000001FF
