:06097C009000010203518E
:10006600EFD3940540037F0122120338FED3940395
:1000760040037F0222EF7035EE700812097CF452BD
:10008600935294120338B4010812097C4293F45235
:1000960094120338FEB4020712097C42934294EE8E
:1000A600B4030A12097CFEF45293EE4294EF640103
:1000B6007037120338FE700812097CF4529152927E
:1000C600EEB4010812097C4291F45292120338B43C
:1000D600020712097C42914292120338B4030A12B3
:1000E600097CFEF45291EE4292EF640270371203DD
:1000F60038FE700812097CF452955296EEB4010847
:1001060012097C4295F45296120338B4020712097A
:100116007C42954296120338B4030A12097CFEF417
:100126005295EE4296EF64037037120338FE70085C
:1001360012097CF452B152B2EEB4010812097C42A3
:10014600B1F452B2120338B4020712097C42B1422A
:10015600B2120338B4030A12097CFEF452B1EE421D
:10016600B2EF64047037120338FE700812097CF48B
:1001760052B352B4EEB4010812097C42B3F452B43D
:10018600120338B4020712097C42B342B412033890
:10019600B4030A12097CFEF452B3EE42B4EF6405CE
:1001A6007037120338FF700812097CF452C952CA1C
:1001B600EFB4010812097C42C9F452CA120338B4DA
:1001C600020712097C42C942CA120338B4030A1252
:0C01D600097CFFF452C9EF42CA7F0022EE
:10001E00EF14601614601914601C14601F14602213
:10002E0024057022E5805DFE801CE5905DFE801645
:10003E00E5A05DFE8010E5B05DFE800AE5C05DFEC8
:10004E008004E5C85DFEEED3940040037F01227F5D
:01005E0000A1
:01005F00227E
:10086800EF146014146015146016146017146018DF
:1008780024057017ED428022ED429022ED42A0221D
:0C088800ED42B022ED42C022ED42C82239
:10083600EF14601514601714601914601B14601D02
:100846002405701DEDF4528022EDF4529022EDF451
:1008560052A022EDF452B022EDF452C022EDF45231
:02086600C822A6
:10091000E4F548F549754A01754B01F54C754DF8FC
:10092000754ECD754F01FB7A0079487F020201E2D6
:100930001208941206B6120910120799D2AF7D045C
:0D0940007F0112086812053A12044380F886
:040713000250000090
:100803004EF5899000030203519000021203A9FFE1
:10081300C3E5519FFFE55095F0FE229000050203CA
:10082300A9900002020351900004020351900007B3
:030833000203516C
:03000B0002000AE6
:01000A0032C3
:1001E200AD07EDD3940240037F0122ED706EC28C05
:1001F200120824B40104D2A98002C2A990000112FB
:100202000351B40104D2B98002C2B9120338FED339
:10021200940340037F0222E58954FC120803FFB4D1
:100222000103538E7FEF7003438E80EFB4020543C8
:10023200890480035389FB12082AB40105438F0104
:100242008003538FFE12081EE5F0F58C12081EF58E
:100252008A120830B40102D28C7F0022ED64017050
:100262006EC28E120824B40104D2AB8002C2AB90DB
:100272000001120351B40104D2BB8002C2BB1203BB
:1002820038FEC3940340037F0222E58954CF12084B
:1002920003FFB40103538EBFEF7003438E40EFB4EC
:1002A200020543894080035389BF12082AB401051D
:1002B200438F028003538FFD12081EE5F0F58D1265
:1002C200081EF58B120830B40102D28E7F0022ED97
:1002D2006402705F538EEF120824B4010543AF0429
:1002E200800353AFFB120806FED3940240037F0241
:1002F20022EEB40103538EFB1208067003438E04F0
:10030200120806B40205438E088003538EF71208C2
:100312002AB40105438F048003538FFB12081EFD8C
:10032200ACF0ECF5D68DD7120830B40103438E1031
:060332007F00227F022281
:10094D0012080C12037EFDD3EF9DEE95F040047F4F
:06095D000180027F002270
:0B097100900002E5508551F0020400E8
:06098200EC8DF00203E120
:0409880012080C2223
:0407CF008F828E8304
:1007D300AE50AF51E48F4B8E4AF549F548AE50AF5A
:1007E30051C3EF954BFFEE954AFEE49549FDE49521
:0F07F30048FCAB82AA83E4F9F8D312042D50DE40
:0108020022D3
:03001B0002006080
:01006000326D
:0300630002000E8A
:0D000E00C0E00551E55170020550D0E03210
:0C0717000146FF0145FF014700014004BE
:070003007B007A0079412225
:1006B6007F037E0012075FBF011475460675450667
:1006C6007F067E0012075FBF01028024803B7F0108
:1006D6007E0012075FBF010875460175450180104F
:1006E6007F047E0012075FBF010B75460575450442
:1006F6007E007F01227546FF7545FF7D047F01124E
:0D07060008367D107F01120868E4FEFF2216
:10044300E540603D14605214607A1470030204F3B3
:100453001460030205251206B6EF64014E60030221
:1004630005257D107F011208367D047F011208687F
:100473007D407F03120836E4F5407FF47E010207D6
:10048300CFAF457E00120963EF60030205257D406F
:100493007F0312086875400122AF467E001209638C
:1004A300BF011A1200037D407C9C120982120003D3
:1004B3001209717D407F031208367540021205321E
:1004C3007060804DAF467E001208EBEF60061205A8
:1004D30026020836AF467E00120963EF70447D4062
:1004E3007F031208681205327002802575400322CB
:1004F300AF467E001208EBEF60061205261208369F
:1005030012000312094DEF7008FFFE120963EF702A
:10051300117D107F011208687D047F011208367572
:02052300400492
:10052500227D107F011208687D047F0122E4FFFE11
:05053500120963EF2232
:100723002038080108010000000000051001000046
:10073300000000052001000000000001020100008C
:100743000000000101010000000000038000000020
:0B07530000000001200000000000007A
:1008C000AF49EF75F008A4240BF822EF75F008A4E7
:1008D000240CF9E4FAFB2275F008A42408F8E6FFDA
:0B08E00022C3EF9407EE648094802296
:10079900E4F548F549AF49EF75F008A42409F8E6EE
:1007A900F54BE4F54AEF1208D77B007A00794A1233
:1007B90000660549E54970020548C39407E54864A0
:0507C90080948040D087
:0107CE002208
:04075F008E4B8F4CE2
:10076300AE4CEE1208D7EE75F008A42409F8E6FDA6
:10077300C3E54C9407E54B6480948040037F0022DB
:1007830012001EE54C75F008A4240AF8E6B5070329
:050793007F01227F0040
:01079800223E
:0E0963001208E140037F04221208C2E6FF22C0
:1008EB001208E140037F00221208C2E6B401131282
:1008FB0008CB120988D3EF9488EE941340047F0140
:04090B0080027F00E7
:01090F0022C5
:10053A00E4F54AF548F549E5491208C3E670181288
:10054A000622EF64017010120603120971E54912BE
:10055A0008C376030205EC1208C0E664037032127F
:10056A0008CB12094DEF6029120622EF6401701AB6
:10057A001208C076011208CB7D607CEA120982E576
:10058A00491208CC1209710205ECE54975F0088098
:10059A004BE5491208C3E664017019AF49AE481227
:1005AA00075FEF700F120603120971E5491208C3BB
:1005BA007602802E1208C0E6640270261208CB1258
:1005CA00094DEF601DAF49AE4812075FE54975F066
:1005DA0008BF0108A4240BF876018006A4240BF8AE
:1005EA00E4F60549E54970020548C39407E54864FD
:0805FA008094805003020541CA
:1006020022E54975F008A4240CF9E4FAFB7D0AFC02
:10061200120982E54975F008A4240CF9E4FAFB22D8
:08062200AF49AE4812075F2248
:100894007549041208B17549101208B175494075BB
:0D08A40048027B007A0079487F030200665D
:0F08B1007548037B007A0079487F0112006622A8
:0300000002062ACB
:0C062A00787FE4F6D8FD7581510206715E
:10033800BB010689828A83E0225002E722BBFE02C3
:09034800E32289828A83E49322F6
:10035100BB010CE58229F582E5833AF583E0225061
:1003610006E92582F8E622BBFE06E92582F8E222AB
:0D037100E58229F582E5833AF583E49322C5
:10037E00BB010A89828A83E0F5F0A3E0225006874A
:10038E00F009E71922BBFE07E3F5F009E31922890C
:0B039E00828A83E493F5F0740193223F
:1003A900BB0110E58229F582E5833AF583E0F5F092
:1003B900A3E0225009E92582F886F008E622BBFE6F
:1003C9000AE92582F8E2F5F008E222E5832AF583B5
:0803D900E993F5F0A3E993227A
:1003E100BB010A89828A83F0E5F0A3F0225006F767
:0F03F10009A7F01922BBFE06F3E5F009F3192264
:10040000F8BB0111E58229F582E5833AF583E8F02E
:10041000E5F0A3F0225009E92582C8F608A6F022EB
:0D042000BBFE09E92582C8F2E5F008F222D2
:10042D00EB9FF5F0EA9E42F0E99D42F0EC6480C846
:06043D0064809845F022E6
:10063600020930E493A3F8E493A34003F68001F2A1
:1006460008DFF48029E493A3F85407240CC8C333C5
:10065600C4540F4420C8834004F456800146F6DF94
:10066600E4800B0102040810204080900713E47E0A
:10067600019360BCA3FF543F30E509541FFEE49389
:10068600A360010ECF54C025E060A840B8E493A350
:10069600FAE493A3F8E493A3C8C582C8CAC583CA7B
:1006A600F0A3C8C582C8CAC583CADFE9DEE780BE33
:01075E00009A
:00000001FF
