:060AB60090000102035153
:10006600EFD3940540037F0122120338FED3940395
:1000760040037F0222EF7035EE7008120AB6F45282
:10008600935294120338B40108120AB64293F452FA
:1000960094120338FEB40207120AB642934294EE53
:1000A600B4030A120AB6FEF45293EE4294EF6401C8
:1000B6007037120338FE7008120AB6F45291529243
:1000C600EEB40108120AB64291F45292120338B401
:1000D6000207120AB642914292120338B4030A1278
:1000E6000AB6FEF45291EE4292EF640270371203A2
:1000F60038FE7008120AB6F452955296EEB401080C
:10010600120AB64295F45296120338B40207120A3E
:10011600B642954296120338B4030A120AB6FEF4A2
:100126005295EE4296EF64037037120338FE70085C
:10013600120AB6F452B152B2EEB40108120AB6422D
:10014600B1F452B2120338B40207120AB642B142EF
:10015600B2120338B4030A120AB6FEF452B1EE42E2
:10016600B2EF64047037120338FE7008120AB6F450
:1001760052B352B4EEB40108120AB642B3F452B402
:10018600120338B40207120AB642B342B412033855
:10019600B4030A120AB6FEF452B3EE42B4EF640593
:1001A6007037120338FF7008120AB6F452C952CAE1
:1001B600EFB40108120AB642C9F452CA120338B49F
:1001C6000207120AB642C942CA120338B4030A1217
:0C01D6000AB6FFF452C9EF42CA7F0022B3
:10001E00EF14601614601914601C14601F14602213
:10002E0024057022E5805DFE801CE5905DFE801645
:10003E00E5A05DFE8010E5B05DFE800AE5C05DFEC8
:10004E008004E5C85DFEEED3940040037F01227F5D
:01005E0000A1
:01005F00227E
:10091300EF14601414601514601614601714601833
:1009230024057017ED428022ED429022ED42A02271
:0C093300ED42B022ED42C022ED42C8228D
:1008E100EF14601514601714601914601B14601D57
:1008F1002405701DEDF4528022EDF4529022EDF4A6
:1009010052A022EDF452B022EDF452C022EDF45285
:02091100C822FA
:100A1100E4F549F54A754B01754C01F54D754EF8F4
:0F0A2100754FCD755001FB7A007949FF0201E254
:100A5B00759850438E01438E0475D7D075D6FF43DE
:030A6B008E1022C8
:10093F0012096B12071C120A1112080E120A5B120F
:10094F000AC6D2AF7D047F01120913120A7F120566
:0C095F00A0120474120A46120ACA80F2A8
:04077900025B00001F
:1008AE004EF5899000030203519000021203A9FF36
:1008BE00C3E55C9FFFE55B95F0FE22900005020309
:1008CE00A990000202035190000402035190000708
:0308DE00020351C1
:1001E200AD07EDD3940240037F0122ED706EC28C05
:1001F2001208CFB40104D2A98002C2A99000011250
:100202000351B40104D2B98002C2B9120338FED339
:10021200940340037F0222E58954FC1208AEFFB426
:100222000103538E7FEF7003438E80EFB4020543C8
:10023200890480035389FB1208D5B40105438F0159
:100242008003538FFE1208C9E5F0F58C1208C9F538
:100252008A1208DBB40102D28C7F0022ED640170A5
:100262006EC28E1208CFB40104D2AB8002C2AB9030
:100272000001120351B40104D2BB8002C2BB1203BB
:1002820038FEC3940340037F0222E58954CF12084B
:10029200AEFFB40103538EBFEF7003438E40EFB441
:1002A200020543894080035389BF1208D5B4010572
:1002B200438F028003538FFD1208C9E5F0F58D12BA
:1002C20008C9F58B1208DBB40102D28E7F0022ED41
:1002D2006402705F538EEF1208CFB4010543AF047E
:1002E200800353AFFB1208B1FED3940240037F0296
:1002F20022EEB40103538EFB1208B17003438E0445
:100302001208B1B40205438E088003538EF7120817
:10031200D5B40105438F048003538FFB1208C9FD36
:10032200ACF0ECF5D68DD71208DBB40103438E1086
:060332007F00227F022281
:100A30001208B712037EFDD3EF9DEE95F040047FC0
:060A40000180027F00228C
:0B0A9D00900002E55B855CF0020400A5
:060ABC00EC8DF00203E1E5
:040AC2001208B7223D
:04087A008F828E8358
:10087E00AE5BAF5CE48F4F8E4EF54DF54CAE5BAF7D
:10088E005CC3EF954FFFEE954EFEE4954DFDE4955E
:0F089E004CFCAB82AA83E4F9F8D312042D50DE90
:0108AD002228
:03000B0002000EE2
:0D000E00C0E0055CE55C7002055BD0E032EF
:03001B0002006080
:01006000326D
:0300630002006137
:01006100326C
:0F077D000147FF0146FF0148000141040140040C
:070AA8007B007A0079422275
:10071C007F037E001207D4BF011475470675460689
:10072C007F067E001207D4BF01028024803B7F012C
:10073C007E001207D4BF0108754701754601801071
:10074C007F047E001207D4BF010B75470575460464
:10075C007E007F01227547FF7546FF7D047F0112E5
:0D076C0008E17D107F01120913E4FEFF2259
:1009C200E4F54AF54BF54AF54B7F327E0012087A80
:1009D200120ACA120A46054BE54B7002054AC39435
:0909E20064E54A6480948040E061
:0109EB0022E9
:10047400E541604314606024FE70030205151460B6
:100484000302057E75561112071CEF64014E6003CA
:1004940002057E7F011200037D107F011208E17DB9
:1004A400047F011209137D407F031208E1E4F54142
:1004B4007FF47E0102087A755612AF467E00120A56
:1004C4008FEF600302057E7F021200037D407F03ED
:1004D40012091375410122755613AF477E00120AA3
:1004E4008FBF01187F03120003120AA87D407C9C71
:1004F400120ABC120AA8120A9D75410312059870CB
:10050400797F0412000312057FEF706E7F050205E8
:01051400786E
:10051500AF477E00120A8F8F49755614E54970144E
:10052500E549654060057F061200037D407F0312A3
:1005350009138015E549B40110654060057F071270
:1005450000037D407F031208E1854940120AA81285
:100555000A30EF7008FFFE120A8FEF701C12059823
:1005650070047F0880027F0912000312057FEF7077
:09057500087F0A1200037541041D
:10057E00221209C27D107F011209137D047F011220
:10058E0008E1AF477E00120A8F22E4FFFE120A8FA7
:02059E00EF224A
:10078C0020380801080100000000000510010000DD
:10079C000000000520010000000000010201000023
:1007AC0000000001010100000000000380000000B7
:0B07BC00000000012000000000000011
:10099700AF4AEF75F008A4240BF822EF75F008A40E
:1009A700240CF9E4FAFB2275F008A42408F8E6FF02
:0B09B70022C3EF9407EE6480948022BE
:10080E00E4F549F54AAF4AEF75F008A42409F8E675
:10081E00F54CE4F54BEF1209AE7B007A00794B12E2
:10082E000066054AE54A70020549C39407E5496426
:05083E0080948040D011
:010843002292
:0407D4008E4C8F4D6B
:1007D800AE4DEE1209AEEE75F008A42409F8E6FD58
:1007E800C3E54D9407E54C6480948040037F002264
:1007F80012001EE54D75F008A4240AF8E6B50703B3
:050808007F01227F00CA
:01080D0022C8
:0E0A8F001209B840037F0422120999E6FF22E3
:1009EC001209B840037F0022120999E6B4011312D0
:1009FC0009A2120AC2D3EF9410EE942740047F018F
:040A0C0080027F00E5
:010A100022C3
:1005A000E4F54BF549F54AE54A12099AE670181246
:1005B0000688EF64017010120669120A9DE54A125E
:1005C000099A7603020652120997E6640370321202
:1005D00009A2120A30EF6029120688EF6401701A2E
:1005E00012099776011209A27D607CEA120ABCE525
:1005F0004A1209A3120A9D020652E54A75F00880C4
:100600004BE54A12099AE664017019AF4AAE4912E5
:1006100007D4EF700F120669120A9DE54A12099A73
:100620007602802E120997E6640270261209A21241
:100630000A30EF601DAF4AAE491207D4E54A75F0A3
:1006400008BF0108A4240BF876018006A4240BF847
:10065000E4F6054AE54A70020549C39407E5496492
:0806600080948050030205A7FD
:1006680022E54A75F008A4240CF9E4FAFB7D0AFC9B
:10067800120ABCE54A75F008A4240CF9E4FAFB2236
:08068800AF4AAE491207D4226B
:10096B00754A04120988754A10120988754A407530
:0D097B0049027B007A0079497F0302006683
:0F0988007549037B007A0079497F0112006622CE
:0907C7000451000000000155017D
:100A6E00755E02755D037B007A00795D7F0302007F
:010A7E006611
:100844007851120454E47B707A17F9F8C312044304
:100854005015E4F554F553F552F551E55570047F00
:100864000180027F008F55E5557D027F03600302FE
:0508740009131208E168
:01087900225C
:040AC60075C13422A0
:040ACA0075C134229C
:0307D000015610BF
:070AAF007B007A0079572259
:080003008F993099FDC299228A
:100A7F00120AAF7DF47C01120ABC120AAF020A9D62
:100A4600120AAF120A30EF600B120AAF120A9DAFFC
:050A560056120003220E
:0300000002069065
:0C069000787FE4F6D8FD75815E0206D785
:10033800BB010689828A83E0225002E722BBFE02C3
:09034800E32289828A83E49322F6
:10035100BB010CE58229F582E5833AF583E0225061
:1003610006E92582F8E622BBFE06E92582F8E222AB
:0D037100E58229F582E5833AF583E49322C5
:10037E00BB010A89828A83E0F5F0A3E0225006874A
:10038E00F009E71922BBFE07E3F5F009E31922890C
:0B039E00828A83E493F5F0740193223F
:1003A900BB0110E58229F582E5833AF583E0F5F092
:1003B900A3E0225009E92582F886F008E622BBFE6F
:1003C9000AE92582F8E2F5F008E222E5832AF583B5
:0803D900E993F5F0A3E993227A
:1003E100BB010A89828A83F0E5F0A3F0225006F767
:0F03F10009A7F01922BBFE06F3E5F009F3192264
:10040000F8BB0111E58229F582E5833AF583E8F02E
:10041000E5F0A3F0225009E92582C8F608A6F022EB
:0D042000BBFE09E92582C8F2E5F008F222D2
:10042D00EB9FF5F0EA9E42F0E99D42F0EC6480C846
:06043D0064809845F022E6
:10044300EB9FF5F0EA9E42F0E99D42F0E89C45F00F
:010453002286
:100454007401FF3395E0FEFDFC080808E62FFFF663
:1004640018E63EFEF618E63DFDF618E63CFCF622DC
:10069C0002093FE493A3F8E493A34003F68001F22C
:1006AC0008DFF48029E493A3F85407240CC8C3335F
:1006BC00C4540F4420C8834004F456800146F6DF2E
:1006CC00E4800B0102040810204080900779E47E3E
:1006DC00019360BCA3FF543F30E509541FFEE49323
:1006EC00A360010ECF54C025E060A840B8E493A3EA
:1006FC00FAE493A3F8E493A3C8C582C8CAC583CA15
:10070C00F0A3C8C582C8CAC583CADFE9DEE780BECC
:0107D3000025
:00000001FF
