:0609E60090000102035124
:10006600EFD3940540037F0122120338FED3940395
:1000760040037F0222EF7035EE70081209E6F45253
:10008600935294120338B401081209E64293F452CB
:1000960094120338FEB402071209E642934294EE24
:1000A600B4030A1209E6FEF45293EE4294EF640199
:1000B6007037120338FE70081209E6F45291529214
:1000C600EEB401081209E64291F45292120338B4D2
:1000D60002071209E642914292120338B4030A1249
:1000E60009E6FEF45291EE4292EF64027037120373
:1000F60038FE70081209E6F452955296EEB40108DD
:100106001209E64295F45296120338B40207120910
:10011600E642954296120338B4030A1209E6FEF443
:100126005295EE4296EF64037037120338FE70085C
:100136001209E6F452B152B2EEB401081209E642CF
:10014600B1F452B2120338B402071209E642B142C0
:10015600B2120338B4030A1209E6FEF452B1EE42B3
:10016600B2EF64047037120338FE70081209E6F421
:1001760052B352B4EEB401081209E642B3F452B4D3
:10018600120338B402071209E642B342B412033826
:10019600B4030A1209E6FEF452B3EE42B4EF640564
:1001A6007037120338FF70081209E6F452C952CAB2
:1001B600EFB401081209E642C9F452CA120338B470
:1001C60002071209E642C942CA120338B4030A12E8
:0C01D60009E6FFF452C9EF42CA7F002284
:10001E00EF14601614601914601C14601F14602213
:10002E0024057022E5805DFE801CE5905DFE801645
:10003E00E5A05DFE8010E5B05DFE800AE5C05DFEC8
:10004E008004E5C85DFEEED3940040037F01227F5D
:01005E0000A1
:01005F00227E
:1008B500EF14601414601514601614601714601892
:1008C50024057017ED428022ED429022ED42A022D0
:0C08D500ED42B022ED42C022ED42C822EC
:10088300EF14601514601714601914601B14601DB5
:100893002405701DEDF4528022EDF4529022EDF404
:1008A30052A022EDF452B022EDF452C022EDF452E4
:0208B300C82259
:10098600E4F548F549754A01754B01F54C754DF886
:10099600754ECD754F01FB7A0079487F020201E260
:100938001208E11206C41209861207B01209BC1285
:1009480009F6D2AF7D047F011208B51204741205AE
:09095800641207E61209FA80F2AC
:04072100025500007D
:100850004EF5899000030203519000021203A9FF94
:10086000C3E5569FFFE55595F0FE22900005020373
:10087000A990000202035190000402035190000766
:030880000203511F
:03000B0002000AE6
:01000A0032C3
:1001E200AD07EDD3940240037F0122ED706EC28C05
:1001F200120871B40104D2A98002C2A990000112AE
:100202000351B40104D2B98002C2B9120338FED339
:10021200940340037F0222E58954FC120850FFB484
:100222000103538E7FEF7003438E80EFB4020543C8
:10023200890480035389FB120877B40105438F01B7
:100242008003538FFE12086BE5F0F58C12086BF5F4
:100252008A12087DB40102D28C7F0022ED64017003
:100262006EC28E120871B40104D2AB8002C2AB908E
:100272000001120351B40104D2BB8002C2BB1203BB
:1002820038FEC3940340037F0222E58954CF12084B
:1002920050FFB40103538EBFEF7003438E40EFB49F
:1002A200020543894080035389BF120877B40105D0
:1002B200438F028003538FFD12086BE5F0F58D1218
:1002C200086BF58B12087DB40102D28E7F0022EDFD
:1002D2006402705F538EEF120871B4010543AF04DC
:1002E200800353AFFB120853FED3940240037F02F4
:1002F20022EEB40103538EFB1208537003438E04A3
:10030200120853B40205438E088003538EF7120875
:1003120077B40105438F048003538FFB12086BFDF2
:10032200ACF0ECF5D68DD712087DB40103438E10E4
:060332007F00227F022281
:1009A60012085912037EFDD3EF9DEE95F040047FA9
:0609B6000180027F002217
:0B09DB00900002E5558556F002040074
:0609EC00EC8DF00203E1B6
:0409F200120859226C
:04081C008F828E83B6
:10082000AE55AF56E48F4B8E4AF549F548AE55AFFD
:1008300056C3EF954BFFEE954AFEE49549FDE495CE
:0F08400048FCAB82AA83E4F9F8D312042D50DEF2
:01084F002286
:03001B0002006080
:01006000326D
:0300630002000E8A
:0D000E00C0E00556E55670020555D0E03201
:0C0725000146FF0145FF014700014004B0
:070003007B007A0079412225
:1006C4007F037E00120776BF011475460675450642
:1006D4007F067E00120776BF01028024803B7F01E3
:1006E4007E00120776BF010875460175450180102A
:1006F4007F047E00120776BF010B7546057545041D
:100704007E007F01227546FF7545FF7D047F01123F
:0D07140008837D107F011208B5E4FEFF226E
:10056400E540603814604A24FE607014600302069B
:10057400191206C4EF64014E60030206197D107F50
:10058400011208837D047F011208B57D407F0312A8
:100594000883E4F5407FF47E0102081CAF457E0029
:1005A4001209CDEF706F7D407F031208B5754001CD
:1005B40022120630BF01131200037D407C9C1209F5
:1005C400EC1200031209DB754003E4FFFE1209CDAF
:1005D400EF704212061AEF703C8037120630EF704B
:1005E400097D407F031208B58011AF467E001209D1
:1005F400CDBF01077D407F03120883120003120957
:10060400A6EF7008FFFE1209CDEF700912061AEF6B
:050614007003754004B5
:10061900227D107F011208B57D047F01120883AF86
:0F062900467E001209CD22AF467E001209CD2277
:100731002038080108010000000000051001000038
:10074100000000052001000000000001020100007E
:100751000000000101010000000000038000000012
:0B07610000000001200000000000006C
:10090D00AF49EF75F008A4240BF822EF75F008A499
:10091D00240CF9E4FAFB2275F008A42408F8E6FF8C
:0B092D0022C3EF9407EE648094802248
:1007B000E4F548F549AF49EF75F008A42409F8E6D7
:1007C000F54BE4F54AEF1209247B007A00794A12CE
:1007D00000660549E54970020548C39407E5486489
:0507E00080948040D070
:0107E50022F1
:040776008E4B8F4CCB
:10077A00AE4CEE120924EE75F008A42409F8E6FD41
:10078A00C3E54C9407E54B6480948040037F0022C4
:10079A0012001EE54C75F008A4240AF8E6B5070312
:0507AA007F01227F0029
:0107AF002227
:0E09CD0012092E40037F042212090FE6FF22BA
:1009610012092E40037F002212090FE6B40113126F
:1009710009181209F2D3EF9410EE942740047F0175
:0409810080027F0071
:01098500224F
:10047400E4F54AF548F549E549120910E670181201
:10048400055CEF6401701012053D1209DBE54912A9
:100494000910760302052612090DE6640370321270
:1004A40009181209A6EF602912055CEF6401701A9D
:1004B40012090D76011209187D607CEA1209ECE537
:1004C400491209191209DB020526E54975F008806D
:1004D4004BE549120910E664017019AF49AE4812A0
:1004E4000776EF700F12053D1209DBE5491209107A
:1004F4007602802E12090DE6640270261209181283
:1005040009A6EF601DAF49AE48120776E54975F0BC
:1005140008BF0108A4240BF876018006A4240BF874
:10052400E4F60549E54970020548C39407E54864C3
:08053400809480500302047B57
:10053C0022E54975F008A4240CF9E4FAFB7D0AFCC9
:10054C001209ECE54975F008A4240CF9E4FAFB2235
:08055C00AF49AE4812077622F8
:1008E1007549041208FE7549101208FE75494075D4
:0D08F10048027B007A0079487F0302006610
:0F08FE007548037B007A0079487F01120066225B
:09076C00045000000000015401DA
:1009BC007549027548037B007A0079487F03020071
:0109CC0066C4
:1007E6007850120454E47B707A17F9F8C312044364
:1007F6005015E4F553F552F551F550E55470047F64
:100806000180027F008F54E5547D027F036003025E
:0508160008B512088383
:01081B0022BA
:0409F60075C1342271
:0409FA0075C134226D
:03000000020638BD
:0C063800787FE4F6D8FD75815602067F3D
:10033800BB010689828A83E0225002E722BBFE02C3
:09034800E32289828A83E49322F6
:10035100BB010CE58229F582E5833AF583E0225061
:1003610006E92582F8E622BBFE06E92582F8E222AB
:0D037100E58229F582E5833AF583E49322C5
:10037E00BB010A89828A83E0F5F0A3E0225006874A
:10038E00F009E71922BBFE07E3F5F009E31922890C
:0B039E00828A83E493F5F0740193223F
:1003A900BB0110E58229F582E5833AF583E0F5F092
:1003B900A3E0225009E92582F886F008E622BBFE6F
:1003C9000AE92582F8E2F5F008E222E5832AF583B5
:0803D900E993F5F0A3E993227A
:1003E100BB010A89828A83F0E5F0A3F0225006F767
:0F03F10009A7F01922BBFE06F3E5F009F3192264
:10040000F8BB0111E58229F582E5833AF583E8F02E
:10041000E5F0A3F0225009E92582C8F608A6F022EB
:0D042000BBFE09E92582C8F2E5F008F222D2
:10042D00EB9FF5F0EA9E42F0E99D42F0EC6480C846
:06043D0064809845F022E6
:10044300EB9FF5F0EA9E42F0E99D42F0E89C45F00F
:010453002286
:100454007401FF3395E0FEFDFC080808E62FFFF663
:1004640018E63EFEF618E63DFDF618E63CFCF622DC
:10064400020938E493A3F8E493A34003F68001F28B
:1006540008DFF48029E493A3F85407240CC8C333B7
:10066400C4540F4420C8834004F456800146F6DF86
:10067400E4800B0102040810204080900721E47EEE
:10068400019360BCA3FF543F30E509541FFEE4937B
:10069400A360010ECF54C025E060A840B8E493A342
:1006A400FAE493A3F8E493A3C8C582C8CAC583CA6D
:1006B400F0A3C8C582C8CAC583CADFE9DEE780BE25
:010775000083
:00000001FF
